:100000000C9432030C945A030C945A030C945A0324
:100010000C945A030C945A030C945A030C945A03EC
:100020000C945A030C945A030C945A030C945A03DC
:100030000C945A030C945A030C945A030C945A03CC
:100040000C94C5040C945A030C9435050C940F05BC
:100050000C945A030C945A030C945A030C945A03AC
:100060000C945A030C945A030C102D0D00000080C0
:1000700080808080800000000000010303030303F0
:10008000030100000000000000000000000000006C
:100090000000000000C0C000000000000000028658
:1000A0008686868686020000000081C3C3C3C3C360
:1000B000C381000000FC7A0606060606067AFC00EC
:1000C000007EBCC0C0C0C0C0C0BC7E00000000003C
:1000D000000000000078FC000000000000000000AC
:1000E000003C7E000000028686868686867AFC00BA
:1000F000007EBDC3C3C3C3C3C3810000000002862A
:1001000086868686867AFC00000081C3C3C3C3C38B
:10011000C3BD7E0000FC7880808080808078FC00F9
:100120000000010303030303033D7E0000FC7A8605
:100130008686868686020000000081C3C3C3C3C3CF
:10014000C3BD7E0000FC7A86868686868602000015
:10015000007EBDC3C3C3C3C3C3BD7E00000002068F
:1001600006060606067AFC000000000000000000FB
:10017000003C7E0000FC7A8686868686867AFC00B5
:10018000007EBDC3C3C3C3C3C3BD7E0000FC7A866B
:1001900086868686867AFC00000081C3C3C3C3C3FB
:1001A000C3BD7E000E182D0D0000000000000000F1
:1001B00000000000000000001038383838383838A7
:1001C00038100000000000000000000000000000E7
:1001D000000000000000000000000000000000001F
:1001E000000000000000000000000000000000000F
:1001F00000000040E0E040000000000000000206B7
:100200000E0E0E0E0E0E06020000000010383838DA
:100210003838383838100000000080C0E0E0E0E0F6
:10022000E0E0C080000000FCFAF60E0E0E0E0E0E8E
:10023000F6FAFC0000EFC78300000000000083C74F
:10024000EF00007FBFDFE0E0E0E0E0E0DFBF7F0045
:1002500000000000000000000000F0F8FC000000BA
:10026000000000000000000083C7EF000000000055
:100270000000000000001F3F7F00000002060E0E7D
:100280000E0E0E0EF6FAFC0000E0D0B83838383802
:1002900038383B170F00007FBFDFE0E0E0E0E0E030
:1002A000C0800000000002060E0E0E0E0E0EF6FAC2
:1002B000FC0000001038383838383838BBD7EF0029
:1002C000000080C0E0E0E0E0E0E0DFBF7F0000FC95
:1002D000F8F0000000000000F0F8FC00000F173BF1
:1002E000383838383838BBD7EF000000000000003D
:1002F000000000001F3F7F0000FCFAF60E0E0E0EFD
:100300000E0E06020000000F173B38383838383818
:10031000B8D0E000000080C0E0E0E0E0E0E0DFBF57
:100320007F0000FCFAF60E0E0E0E0E0E0602000006
:1003300000EFD7BB383838383838B8D0E000007F05
:10034000BFDFE0E0E0E0E0E0DFBF7F0000000206AA
:100350000E0E0E0E0E0EF6FAFC000000000000005D
:100360000000000083C7EF00000000000000000054
:1003700000001F3F7F0000FCFAF60E0E0E0E0E0E60
:10038000F6FAFC0000EFD7BB383838383838BBD71E
:10039000EF00007FBFDFE0E0E0E0E0E0DFBF7F00F4
:1003A00000FCFAF60E0E0E0E0E0EF6FAFC00000F12
:1003B000173B383838383838BBD7EF00000080C0DA
:1003C000E0E0E0E0E0E0DFBF7F000608205F000043
:1003D000000000000000002F0000000007000700E0
:1003E00000147F147F1400242A7F2A12002313088C
:1003F00064620036495522500000050300000000E9
:100400001C224100000041221C000014083E081478
:100410000008083E0808000000A060000008080866
:100420000808000060600000002010080402003E80
:100430005149453E0000427F40000042615149461B
:10044000002141454B31001814127F10002745450B
:100450004539003C4A49493000017109050300361D
:100460004949493600064949291E00003636000030
:100470000000563600000008142241000014141435
:100480001414000041221408000201510906003230
:100490004959513E007C1211127C007F494949366E
:1004A000003E41414122007F4141221C007F4949D9
:1004B0004941007F09090901003E4149497A007F0D
:1004C0000808087F0000417F4100002040413F01B3
:1004D000007F08142241007F40404040007F020C12
:1004E000027F007F0408107F003E4141413E007FB3
:1004F00009090906003E4151215E007F091929467C
:100500000046494949310001017F0101003F404057
:10051000403F001F2040201F003F4038403F006305
:100520001408146300070870080700615149454327
:1005300000007F414100AA55AA55AA55000041413B
:100540007F000004020102040040404040400000DF
:1005500003050000002054545478007F4844443878
:1005600000384444442000384444487F0038545400
:10057000541800087E0901020018A4A4A47C007F7E
:10058000080404780000447D4000004080847D0021
:10059000007F102844000000417F4000007C0418C8
:1005A0000478007C0804047800384444443800FC93
:1005B000242424180018242418FC007C08040408AF
:1005C00000485454542000043F444020003C404024
:1005D000207C001C2040201C003C4030403C00445B
:1005E00028102844001CA0A0A07C004464544C4463
:1005F0000000107C8200000000FF00000000827CF0
:100600001000000006090906000000002400270071
:100610002A0000000000250028002B000000000038
:100620002300260029000404040404040404020234
:100630000202020203030303030301020408102061
:10064000408001020408102001020408102000006C
:100650000008000201000003040700000000000081
:100660000000F10C11241FBECFEFD8E0DEBFCDBFDC
:1006700025E0A6E2B1E001C01D92AA3EB207E1F773
:1006800011E0A0E0B1E0E0E4FBE102C005900D92D2
:10069000A632B107D9F713E0C2E3D3E004C0219733
:1006A000FE010E94930DC133D107C9F70E945E0A73
:1006B0000C949E0D0C9400003FB7F8948091370184
:1006C00090913801A0913901B0913A0126B5A89BCB
:1006D00005C02F3F19F00196A11DB11D3FBFBA2FD4
:1006E000A92F982F8827820F911DA11DB11DBC0134
:1006F000CD0142E0660F771F881F991F4A95D1F7F9
:1007000008958F929F92AF92BF92CF92DF92EF9215
:10071000FF926B017C010E945C034B015C01C114E0
:10072000D104E104F104F1F00E945C03DC01CB018F
:1007300088199909AA09BB09883E9340A105B1050A
:1007400070F321E0C21AD108E108F10888EE880EA2
:1007500083E0981EA11CB11CC114D104E104F10472
:1007600019F7DDCFFF90EF90DF90CF90BF90AF9063
:100770009F908F900895CF92DF92EF92FF920F9308
:100780001F93CF93DF936C017A018B01C0E0D0E01F
:10079000CE15DF0589F0D8016D918D01D601ED915F
:1007A000FC910190F081E02DC6010995892B11F48F
:1007B0007E0102C02196ECCFC701DF91CF911F913E
:1007C0000F91FF90EF90DF90CF900895089580E013
:1007D00090E00895FC01538D448D252F30E0842F47
:1007E00090E0821B930B541710F0CF960895019759
:1007F0000895FC01918D828D981761F0828DDF0143
:10080000A80FB11D5D968C91928D9F5F9F73928F03
:1008100090E008958FEF9FEF0895FC01918D828DF8
:10082000981731F0828DE80FF11D858D90E00895C5
:100830008FEF9FEF0895FC01918D228D892F90E01D
:10084000805C9F4F821B91098F73992708958EE3D7
:1008500091E00E941B0421E0892B09F420E0822F03
:100860000895FC01848DDF01A80FB11DA35ABF4F6D
:100870002C91848D90E001968F739927848FA6899F
:10088000B7892C93A089B1898C9180648C93938DC6
:10089000848D981306C00288F389E02D80818F7DB6
:1008A00080830895EF92FF920F931F93CF93DF936E
:1008B000EC0181E0888F9B8D8C8D981305C0E889B1
:1008C000F989808185FD24C0F62E0B8D10E00F5F25
:1008D0001F4F0F731127E02E8C8DE8120CC00FB63E
:1008E00007FCFACFE889F989808185FFF5CFCE0131
:1008F0000E943104F1CF8B8DFE01E80FF11DE35A08
:10090000FF4FF0820B8FEA89FB898081806207C0EC
:10091000EE89FF896083E889F9898081806480831A
:1009200081E090E0DF91CF911F910F91FF90EF90C8
:100930000895CF93DF93EC01888D8823C9F0EA896D
:10094000FB89808185FD05C0A889B9898C9186FDC8
:100950000FC00FB607FCF5CF808185FFF2CFA889C5
:10096000B9898C9185FFEDCFCE010E943104E7CF8C
:10097000DF91CF91089580E090E0892B29F00E94CB
:10098000270481110C94000008951F920F920FB656
:100990000F9211242F933F938F939F93AF93BF9305
:1009A0008091330190913401A0913501B0913601CD
:1009B0003091320123E0230F2D3720F40196A11D41
:1009C000B11D05C026E8230F0296A11DB11D20937D
:1009D00032018093330190933401A0933501B09399
:1009E00036018091370190913801A0913901B09181
:1009F0003A010196A11DB11D8093370190933801F2
:100A0000A0933901B0933A01BF91AF919F918F911B
:100A10003F912F910F900FBE0F901F9018951F922E
:100A20000F920FB60F9211242F933F934F935F9322
:100A30006F937F938F939F93AF93BF93EF93FF93A6
:100A40008EE391E00E943104FF91EF91BF91AF914D
:100A50009F918F917F916F915F914F913F912F91D6
:100A60000F900FBE0F901F9018951F920F920FB608
:100A70000F9211242F938F939F93EF93FF93E09105
:100A80004E01F0914F018081E0915401F0915501A8
:100A900082FD12C09081809157018F5F8F732091EA
:100AA0005801821751F0E0915701F0E0E25CFE4FEF
:100AB000958F8093570101C08081FF91EF919F91A5
:100AC0008F912F910F900FBE0F901F901895803827
:100AD0009105F0F460347105D8F4FB0123E0F6953C
:100AE000E7952A95E1F7F695FE2FEE27F795E7951E
:100AF0008E0F9F1FFC01E152FE4F6770772781E048
:100B000090E001C0880F6A95EAF79385892B838767
:100B1000089580389105F8F460347105E0F4FB0124
:100B200023E0F695E7952A95E1F7F695FE2FEE2757
:100B3000F795E7958E0F9F1FFC01E152FE4F6770FE
:100B4000772781E090E001C0880F6A95EAF78095E9
:100B50009385892383870895833081F028F4813039
:100B600099F08230A1F008958730A9F08830B9F06B
:100B70008430D1F4809180008F7D03C0809180000B
:100B80008F7780938000089584B58F7702C084B5F5
:100B90008F7D84BD08958091B0008F7703C08091D0
:100BA000B0008F7D8093B00008950E94990DAFED45
:100BB000B1E015969C938E931497FC0124911696A0
:100BC0002C9316973196E4911796EC931797FC01A6
:100BD0003296E4911896EC931897FC013396849121
:100BE00019968C9319971A961C9208952F923F92FA
:100BF0004F925F926F927F928F929F92AF92BF922D
:100C0000CF92DF92EF92FF920F931F93CF93DF93D8
:100C1000CDB7DEB728970FB6F894DEBF0FBECDBFB5
:100C20005B01FC0101900020E9F731971F01281AB0
:100C3000390A2091E501229DA001239D500D112428
:100C400020E830E0241B350B37FF02C02F5F3F4FF9
:100C5000A901559547955E834D839C838B83E12C39
:100C6000F12CE214F3040CF0F9C09091E5019E9D83
:100C7000A0019F9D500D11242D813E81240F351F11
:100C800038872F83EB81FC812191FC83EB8380915A
:100C9000E601582F577030E04091E70151116FC0C5
:100CA000869586958695241B3109989FC00111244D
:100CB000289F2001299F500C389F500C112492012D
:100CC0002C5F3F4F3A8329834501C12CD12C809161
:100CD000E60186958695869590E0C816D9060CF0B3
:100CE000B9C069807A804F8058848091E50190E096
:100CF000A2012F813885421B530B48175907C4F5B1
:100D000000E010E08091E5018C9DF0018D9DF00DDB
:100D10001124E60DF71D8091E3019091E401E80FA5
:100D2000F91FE491F0E0002E02C0F595E7950A94D2
:100D3000E2F78091E901B801680D791DE0FF03C079
:100D4000811103C006C0811104C0C2010E9489053F
:100D500003C0C2010E9467050F5F1F4F08301105D5
:100D600089F63FEF431A530A4FEF641A740ABDCF56
:100D70003FEFC31AD30A48E0840E911CA8CF241B6E
:100D80003109989FC001112443E0959587954A95B4
:100D9000E1F7289F6001299FD00C389FD00C1124C7
:100DA00054E0C50ED11CE091E301F091E401EC0D9B
:100DB000FD1DE4914E2E512C6F80788457E0852ED6
:100DC000912C8091E50190E093014F815885241B7F
:100DD000350B281739070CF03DC085018091E601DD
:100DE00090E098012A193B09281739077CF52091D2
:100DF000E901C201082C02C0959587950A94E2F793
:100E0000B80180FF04C0C301211104C006C0C301A2
:100E1000211103C00E94890502C00E94670581E07C
:100E2000881A910897FE0FC09FEFC91AD90AE0915E
:100E3000E301F091E401EC0DFD1DE4914E2E512CE7
:100E400087E0882E912C0F5F1F4FC8CFEFEF6E1AEF
:100E50007E0AB7CF5FEFE51AF50A03CF28960FB6E3
:100E6000F894DEBF0FBECDBFDF91CF911F910F91E0
:100E7000FF90EF90DF90CF90BF90AF909F908F90BA
:100E80007F906F905F904F903F902F9008953F928A
:100E90004F925F926F927F928F929F92AF92BF928A
:100EA000CF92DF92EF92FF920F931F93CF93DF9336
:100EB000CDB7DEB7E6970FB6F894DEBF0FBECDBF55
:100EC0002B013C015EAB4DAB6115710581059105B0
:100ED00021F480E389831A825BC097FF0BC0709472
:100EE000609450944094411C511C611C711C33242B
:100EF000339401C0312C7E012CE1E20EF11C67011C
:100F00008AE0882E912CA12CB12CC301B201A5013D
:100F100094010E946D0D20E3260FF60121936F01CD
:100F20008F010E191F09A3019201261B370B480BD5
:100F3000590BCA01B901A50194010E946D0D290147
:100F40003A01232B242B252B01F7F701E00FF11F8A
:100F50001082332011F08DE28983E32DF0E0C80187
:100F60008E0F9F1FD701A00FB11F41E050E04C0F23
:100F70005D1FE40FF51FAE15BF0519F02E912193EB
:100F8000FACFE1E0F0E0EC0FFD1FE80FF91F10824F
:100F90006DA97EA9CE0101960E94F605E6960FB6D0
:100FA000F894DEBF0FBECDBFDF91CF911F910F919F
:100FB000FF90EF90DF90CF90BF90AF909F908F9079
:100FC0007F906F905F904F903F900895482F81E001
:100FD00080933D012FB7F89480E293E090933C0119
:100FE00080933B0190938700809386002FBF809170
:100FF0008100887F809381009091810080913D01E4
:10100000892B80938100493029F4219A80918000B6
:10101000806804C0229A8091800080628093800062
:10102000653671052CF477FF05C060E070E002C002
:1010300064E670E080913B0190913C015AE0589F3A
:101040009001599F300D1124DB010E948C0DDC01B1
:10105000CB012AE0B695A795979587952A95D1F764
:101060002FB7F894477F413029F4909389008093FB
:10107000880006C0423021F490938B0080938A0050
:101080002FBF0895009769F0FC0101900020E9F757
:101090003197AF01481B590BBC018EE391E00C94D2
:1010A000BB0380E090E008951F93CF93DF93282F38
:1010B00030E0F901E25BF94F8491F901E65CF94F08
:1010C000D491F901EA5DF94FC491CC23C9F0162FF0
:1010D00081110E94AC05EC2FF0E0EE0FFF1FEE5ED9
:1010E000F94FA591B4918FB7F894111105C09C9157
:1010F000ED2FE095E92302C0EC91ED2BEC938FBF2F
:10110000DF91CF911F910895EF92FF920F931F935C
:10111000CF93DF93E82EF62EC7E0D0E0042F10E047
:1011200098010C2E02C0359527950A94E2F7B90173
:10113000617077278E2D0E94540861E08F2D0E94E8
:10114000540860E08F2D0E945408219748F7DF91E2
:10115000CF911F910F91FF90EF900895CF93DF9360
:1011600090E0FC01E65CF94F2491FC01EA5DF94F47
:101170008491882361F190E0880F991FFC01E85F5A
:10118000F94FC591D491FC01EE5EF94FA591B49150
:10119000611109C09FB7F8948881209582238883C4
:1011A000EC912E230BC0623061F49FB7F894388124
:1011B000822F809583238883EC912E2B2C939FBFC5
:1011C00006C08FB7F894E8812E2B28838FBFDF915C
:1011D000CF910895CF93DF93CFEDD1E061E0898186
:1011E0000E94AE0860E089810E94540861E0888115
:1011F0000E94540861E089810E94540860E089815E
:10120000DF91CF910C94AE08CF93DF9360E0809193
:10121000E0010E94AE0861E08091DF010E94540865
:101220002091E00130E0F901E25BF94F8491F9018E
:10123000E65CF94FD491F901EA5DF94FC491C1110F
:1012400007C060E08091DF01DF91CF910C945408DA
:1012500081110E94AC05EC2FF0E0EE0FFF1FE45E61
:10126000F94FA591B491EC91ED2359F3D9CF0F9398
:101270001F93CF93DF931F92CDB7DEB7482F0FEDAB
:1012800011E061E0F801818149830E94AE08498143
:10129000F801608181810F90DF91CF911F910F91B3
:1012A0000C948408CF93DF93CFEDD1E061E0898186
:1012B0000E94AE0861E089810E94540861E0888143
:1012C0000E94540860E089810E94540860E088818F
:1012D0000E94540848E768818981DF91CF910C947E
:1012E0008408CF939091E201992341F194EE909379
:1012F000BC009091BC0097FFFCCF98E79093BB0097
:1013000094EC9093BC009091BC0097FFFCCF10929E
:10131000BB0094EC9093BC009091BC0097FFFCCF75
:101320008093BB0084EC8093BC008091BC0087FF5D
:10133000FCCF84E98093BC00CF910895C82F0E9410
:1013400052090E94040980E00E9437090E940409A2
:101350008C2F0E9437090E940409CF910C94EA084F
:101360001F93CF93DF93F89481E20E94710980E08C
:101370000E9471098FE70E94710982E20E9471093F
:1013800080E00E94710987E00E9471098091E2016A
:101390008823E1F084EE8093BC008091BC0087FF3D
:1013A000FCCF88E78093BB0084EC8093BC008091E5
:1013B000BC0087FFFCCF80E48093BB0084EC80936B
:1013C000BC008091BC0087FFFCCF09C00E9452097D
:1013D0000E94040980E40E9437090E940409CAEEB1
:1013E000D1E014EC8091E201882351F08881809350
:1013F000BB001093BC008091BC0087FFFCCF05C0F0
:1014000088810E9437090E940409219685E0CA3E1E
:10141000D80741F78091E201882321F084E9809385
:10142000BC0002C00E94EA087894DF91CF911F911E
:101430000895CF92DF92EF92FF920F931F93E82FC0
:10144000F92F05C0015011092109310961F190817D
:1014500096239417B9F305C00150110921093109E8
:1014600011F1908196239413F7CFC12CD12CE12C4C
:10147000F12C0AC08FEFC81AD80AE80AF80A0C152E
:101480001D052E053F0579F080818623841791F391
:101490006C2D7D2D8E2D9F2D1F910F91FF90EF9024
:1014A000DF90CF90089560E070E080E090E01F91C1
:1014B0000F91FF90EF90DF90CF900895CF93DF933F
:1014C000CDB7DEB7A5970FB6F894DEBF0FBECDBF80
:1014D000789484B5826084BD84B5816084BD85B50F
:1014E000826085BD85B5816085BD80916E0081601B
:1014F00080936E00109281008091810082608093C1
:1015000081008091810081608093810080918000C2
:101510008160809380008091B10084608093B100ED
:101520008091B00081608093B00080917A008460E7
:1015300080937A0080917A00826080937A00809113
:101540007A00816080937A0080917A00806880932D
:101550007A001092C100E0914E01F0914F0182E0BB
:101560008083E0914A01F0914B011082E0914C019F
:10157000F0914D018FEC808310925601E091520161
:10158000F091530186E08083E0915001F091510188
:10159000808180618083E0915001F09151018081D0
:1015A00088608083E0915001F091510180818068D2
:1015B0008083E0915001F091510180818F7D808383
:1015C0008091E1018F3FF1F061E00E94AE0861E09F
:1015D0008091E1010E94540861E070E080E090E0B9
:1015E0000E94810360E08091E1010E9454086AE05A
:1015F00070E080E090E00E94810361E08091E10171
:101600000E9454088091E001823101F58091DF0150
:101610008331E1F481E08093E20161E082E10E94A4
:10162000540861E083E10E9454088091B9008E7FE4
:101630008093B9008091B9008D7F8093B9008CE0D0
:101640008093B80085E08093BC0007C01092E2014F
:1016500061E08091DF010E94AE088EEA0E9471096C
:1016600085ED0E94710980E80E94710988EA0E9454
:1016700071098FE30E94710983ED0E94710980E076
:101680000E94710980E40E9471098DE80E9471092D
:1016900084E10E94710980E20E94710980E00E9449
:1016A000710981EA0E94710988EC0E9471098AED32
:1016B0000E94710982E10E94710981E80E9471090A
:1016C0008FEC0E94710989ED0E94710981EF0E94DF
:1016D00071098BED0E94710980E40E94710984EA0E
:1016E0000E94710986EA0E9471098FEA0E947109BD
:1016F00080E094E0EAEEF1E0DF019C011D922150D0
:101700003040E1F70E94B0091092E4011092E30129
:1017100088E690E00E94D7051092270110922601DA
:10172000109229011092280161E088E00E94AE0821
:1017300061E08BE00E94AE0861E08CE00E94AE08A0
:1017400061E08DE00E94AE0860E088E00E945408ED
:1017500060E08BE00E94540860E08CE00E94540836
:1017600060E08DE00E9454081092800080E1809338
:10177000810024EDC22E2EEFD22EEE24EA94FE2C10
:101780007C2C6D2C5E2C4F2C33E2232E312C60E010
:1017900070E0CB019B01AC01215031094109510995
:1017A0002AA33BA34CA35DA360E08091DD010E94CE
:1017B000540883E090E00197F1F761E08091DD014A
:1017C0000E945408C1010197F1F760E08091DD01AA
:1017D0000E9454088091DB019091DC019927FC0163
:1017E000E65CF94F6491FC01EA5DF94FE491F0E0A9
:1017F000EE0FFF1FE45EF94F8591949100E412E42F
:101800002FE030E0462F0E94190A8AA19BA1ACA1CB
:10181000BDA1873C9105A105B10598F082E191E059
:101820000E9442088FE191E00E9442088AEC93E016
:101830000E94D7056EE170E082E191E00E94F6051A
:101840002EC019A220E030E0A9018E010F5D1F4FCC
:10185000CA01B9012AE030E040E050E00E944B0D9F
:10186000605DD8016E938D0121153105410551054B
:1018700079F7CD010E94420882E291E00E9442087D
:101880008FE191E00E94420884EA91E00E94D7052E
:101890004EE150E060E070E0CB010E944707B1E507
:1018A000CB16D104E104F10484F4E0EBCE16EFEFA3
:1018B000DE06EE06FE064CF480EBA82EBB24BA949E
:1018C00088248A9499249A9404C0A72CB62C852C39
:1018D000942C8501FCE9AF16FFEFBF0614F40CE968
:1018E0001FEF0536110514F004E610E08091260183
:1018F000909127018017910741F11016110654F4B9
:1019000061E088E00E94540860E08BE00E94540887
:10191000B80118C060E088E00115110559F00E9477
:10192000540861E08BE00E94540866277727601B0B
:10193000710B08C00E94540860E08BE00E945408BC
:1019400060E070E089E00E94E607809128019091B4
:1019500029018017910741F11016110654F461E036
:101960008CE00E94540860E08DE00E945408B801A9
:1019700018C060E08CE00115110559F00E94540870
:1019800061E08DE00E94540866277727601B710B89
:1019900008C00E94540860E08DE00E94540860E096
:1019A00070E08AE00E94E60788E690E00E94D70592
:1019B00040E050E0B501C4010E94470762E370E0D7
:1019C00080E090E00E9481030E94B00980E094E0F2
:1019D000AAEEB1E0FC011D923197E9F70E94BB0429
:1019E000E3CECF93DF93EEE3F1E01382128288EE31
:1019F00093E0A0E0B0E084839583A683B78384E07E
:101A000091E09183808385EC90E09587848784ECD6
:101A100090E09787868780EC90E0918B808B81ECBB
:101A200090E0938B828B82EC90E0958B848B86EC9C
:101A300090E0978B868B118E128E138E148EEFEDA5
:101A4000F1E082E1818383E1808388E0828361E049
:101A500087E00E94AE08CBEDD1E087E090E09B8369
:101A60008A8360E086E00E94AE0886E090E0998379
:101A70008883DF91CF910895A29FB001B39FC001E9
:101A8000A39F700D811D1124911DB29F700D811DAA
:101A90001124911D0895A1E21A2EAA1BBB1BFD0162
:101AA0000DC0AA1FBB1FEE1FFF1FA217B307E4073D
:101AB000F50720F0A21BB30BE40BF50B661F771F95
:101AC000881F991F1A9469F7609570958095909575
:101AD0009B01AC01BD01CF010895052E97FB1EF4BB
:101AE00000940E94840D57FD07D00E944B0D07FC07
:101AF00003D04EF40C94840D50954095309521956B
:101B00003F4F4F4F5F4F0895909580957095619529
:101B10007F4F8F4F9F4F08950E943C0DB7FF089550
:101B2000821B930B0895EE0FFF1F0590F491E02D9B
:101B3000099481E090E0F8940C949E0DF894FFCF06
:101B4000000000005204BB03EA0399041B04F903DC
:101B50000D044F7574206F662072616E6765000D0D
:061B60000A0020636D0085
:00000001FF
