:100000000C9400010C9428010C9428010C942801F4
:100010000C9428010C9428010C9428010C942801BC
:100020000C9428010C9428010C9428010C942801AC
:100030000C9428010C9428010C9428010C9428019C
:100040000C94F3020C9428010C9463030C943D036C
:100050000C9428010C9428010C9428010C9428017C
:100060000C9495030C9428010C102D0D00000080B9
:1000700080808080800000000000010303030303F0
:10008000030100000000000000000000000000006C
:100090000000000000C0C000000000000000028658
:1000A0008686868686020000000081C3C3C3C3C360
:1000B000C381000000FC7A0606060606067AFC00EC
:1000C000007EBCC0C0C0C0C0C0BC7E00000000003C
:1000D000000000000078FC000000000000000000AC
:1000E000003C7E000000028686868686867AFC00BA
:1000F000007EBDC3C3C3C3C3C3810000000002862A
:1001000086868686867AFC00000081C3C3C3C3C38B
:10011000C3BD7E0000FC7880808080808078FC00F9
:100120000000010303030303033D7E0000FC7A8605
:100130008686868686020000000081C3C3C3C3C3CF
:10014000C3BD7E0000FC7A86868686868602000015
:10015000007EBDC3C3C3C3C3C3BD7E00000002068F
:1001600006060606067AFC000000000000000000FB
:10017000003C7E0000FC7A8686868686867AFC00B5
:10018000007EBDC3C3C3C3C3C3BD7E0000FC7A866B
:1001900086868686867AFC00000081C3C3C3C3C3FB
:1001A000C3BD7E0000000000240027002A000000DC
:1001B0000000250028002B0000000000230026007E
:1001C00029000404040404040404020202020202DA
:1001D000030303030303010204081020408001020B
:1001E000040810200102040810200000000800028A
:1001F0000100000304070000000000000000EF0FF2
:1002000011241FBECFEFD8E0DEBFCDBF27E0AEE6A2
:10021000B1E001C01D92A637B207E1F711E0A0E0FE
:10022000B1E0E6EFF5E202C005900D92AE36B107FF
:10023000D9F710E0C0E0D1E004C02197FE010E9490
:10024000EE12CF3FD107C9F70E94B70A0C94F912FA
:100250000C940000CF92DF92EF92FF920F931F93C6
:10026000CF93DF936C017A018B01C0E0D0E0CE1513
:10027000DF0589F0D8016D918D01D601ED91FC91DA
:100280000190F081E02DC6010995892B11F47E01C2
:1002900002C02196ECCFC701DF91CF911F910F9142
:1002A000FF90EF90DF90CF900895FC01538D448D27
:1002B000252F30E0842F90E0821B930B541710F011
:1002C000CF96089501970895FC01918D828D98171E
:1002D00061F0828DDF01A80FB11D5D968C91928D2A
:1002E0009F5F9F73928F90E008958FEF9FEF089527
:1002F000FC01918D828D981731F0828DE80FF11DF0
:10030000858D90E008958FEF9FEF0895FC01918D0A
:10031000228D892F90E0805C9F4F821B91098F7303
:10032000992708958EEB92E00E94860121E0892BA7
:1003300009F420E0822F0895FC01848DDF01A80FCD
:10034000B11DA35ABF4F2C91848D90E001968F73FD
:100350009927848FA689B7892C93A089B1898C911C
:1003600080648C93938D848D981306C00288F389E2
:10037000E02D80818F7D80830895EF92FF920F930F
:100380001F93CF93DF93EC0181E0888F9B8D8C8D41
:10039000981305C0E889F989808185FD24C0F62E6F
:1003A0000B8D10E00F5F1F4F0F731127E02E8C8D08
:1003B000E8120CC00FB607FCFACFE889F9898081F2
:1003C00085FFF5CFCE010E949C01F1CF8B8DFE0100
:1003D000E80FF11DE35AFF4FF0820B8FEA89FB898A
:1003E0008081806207C0EE89FF896083E889F9898E
:1003F00080818064808381E090E0DF91CF911F91C4
:100400000F91FF90EF900895CF93DF93EC01888DCB
:100410008823C9F0EA89FB89808185FD05C0A88908
:10042000B9898C9186FD0FC00FB607FCF5CF80818E
:1004300085FFF2CFA889B9898C9185FFEDCFCE01D8
:100440000E949C01E7CFDF91CF91089580E090E07A
:10045000892B29F00E94920181110C9400000895CB
:1004600085ED8093BC008091BC0084FDFCCF109290
:100470009B02089540919001262F30E0240F311DFA
:1004800021323105DCF420919B022430C9F4FC01B7
:1004900080E090E0861758F4309190012191DC01C2
:1004A000A259BE4FA30FB11D2C930196F3CF80919B
:1004B0009001680F6093900180E0089581E00895B5
:1004C00082E008950895E0919D0280919C02E817D2
:1004D00030F4F0E0E256FD4F808190E008958FEF18
:1004E0009FEF089590919D0280919C02981750F47F
:1004F000E92FF0E0E256FD4F208130E09F5F9093BE
:100500009D0202C02FEF3FEFC901089580919C0228
:1005100090E020919D02821B91090895CF92DF9275
:10052000EF92FF920F931F93CF93DF937C01262FBF
:10053000972F8A0180915102882391F0C62FD72FDF
:100540006E01C40ED51ECC15DD0571F06991D70181
:10055000ED91FC910190F081E02DC7010995F3CF59
:10056000642F822F0E943A02C801DF91CF911F9120
:100570000F91FF90EF90DF90CF900895CF93DF938E
:100580001F92CDB7DEB76983209151022223D1F0AB
:1005900020917402203240F021E030E0FC013383EE
:1005A000228380E090E015C080915202E82FF0E0B5
:1005B000ED5AFD4F998190838F5F80935202809313
:1005C000740205C061E0CE0101960E943A0281E00A
:1005D00090E00F90DF91CF910895089580E090E032
:1005E00008950E94F4121F920F920FB60F921124D9
:1005F0002F933F938F939F93AF93BF938091D80195
:100600009091D901A091DA01B091DB013091D7012D
:1006100023E0230F2D3720F40196A11DB11D05C045
:1006200026E8230F0296A11DB11D2093D7018093C8
:10063000D8019093D901A093DA01B093DB018091A6
:10064000DC019091DD01A091DE01B091DF01019606
:10065000A11DB11D8093DC019093DD01A093DE010B
:10066000B093DF01BF91AF919F918F913F912F91F7
:100670000F900FBE0F901F9018951F920F920FB6FC
:100680000F9211242F933F934F935F936F937F9318
:100690008F939F93AF93BF93EF93FF938EEB92E073
:1006A0000E949C01FF91EF91BF91AF919F918F911B
:1006B0007F916F915F914F913F912F910F900FBE5E
:1006C0000F901F9018951F920F920FB60F92112442
:1006D0002F938F939F93EF93FF93E091CE02F0912E
:1006E000CF028081E091D402F091D50282FD12C048
:1006F00090818091D7028F5F8F732091D8028217EB
:1007000051F0E091D702F0E0E254FD4F958F8093D5
:10071000D70201C08081FF91EF919F918F912F911E
:100720000F900FBE0F901F9018951F920F920FB64B
:100730000F9211242F933F934F935F936F937F9367
:100740008F939F93AF93BF93EF93FF938091B900E3
:10075000887F803609F49CC068F5883209F45BC054
:1007600090F4803109F454C038F4882309F4F6C0B9
:10077000883009F44DC0F6C0883109F44CC080328D
:1007800009F45DC0EFC0803409F468C048F48033D8
:1007900009F455C0883309F0E5C080939902D8C0A8
:1007A000803509F44FC0883509F45DC0883409F0FC
:1007B000D9C0D6C0883909F4C7C0A8F4883709F46D
:1007C00067C038F4883609F463C0803709F460C024
:1007D000C9C0883809F4B8C0803909F45FC08038CE
:1007E00009F0C0C05BC0803B09F486C038F4803A91
:1007F00009F466C0883A09F47FC0B4C0803C09F4AB
:10080000A7C0883C09F4A4C0883B09F48AC0AAC0E8
:100810008091960210C0909198028091970298174B
:1008200070F5E091980281E08E0F80939802F0E0DD
:10083000EB58FD4F80818093BB0085EC86C0809390
:1008400099028EC0E091980281E08E0F8093980209
:100850008091BB00F0E0EB58FD4F808390919802AF
:10086000809197026EC0E091980281E08E0F809394
:1008700098028091BB00F0E0EB58FD4F808380919F
:100880009A0281116DC081E08093950284EA61C073
:1008900083E080939B021092B401CFCF8091B4018A
:1008A000803208F051C0E091B40181E08E0F809356
:1008B000B4018091BB00F0E0EC56FE4F8083BDCFC9
:1008C00085EC8093BC0010929B028091B401803231
:1008D00030F4E091B401F0E0EC56FE4F10826091EC
:1008E000B40170E0E0919201F091930184E991E00C
:1008F00009951092B40136C084E080939B02109257
:10090000910110929001E0918E01F0918F01099573
:1009100080919001811105C081E080939001109237
:100920006E01E091910181E08E0F80939101F0E0E2
:10093000E259FE4F80818093BB009091910180919C
:100940009001981708F479CF85E88093BC000AC01D
:1009500085EC8093BC0010929B0204C01092990217
:100960000E943002FF91EF91BF91AF919F918F91C3
:100970007F916F915F914F913F912F910F900FBE9B
:100980000F901F901895833081F028F4813099F0F2
:100990008230A1F008958730A9F08830B9F0843012
:1009A000D1F4809180008F7D03C0809180008F778B
:1009B00080938000089584B58F7702C084B58F7DC1
:1009C00084BD08958091B0008F7703C08091B000FE
:1009D0008F7D8093B00008953FB7F8948091DC013B
:1009E0009091DD01A091DE01B091DF0126B5A89BB9
:1009F00005C02F3F19F00196A11DB11D3FBFBA2FB1
:100A0000A92F982F8827820F911DA11DB11DBC0110
:100A1000CD0142E0660F771F881F991F4A95D1F7D5
:100A2000089590919B029111FCCF613208F060E231
:100A300091E090939B0290939A022FEF209399025A
:100A400010929802260F209397029093960290910D
:100A50009602880F892B80939602809195028130AF
:100A600061F410929502809196028093BB00809170
:100A7000BC0083FDF8CF85EC01C085EE8093BC00FF
:100A800080919B028130E1F380919802861710F4E7
:100A900060919802A5E7B2E02EE932E0F9018E2FCD
:100AA000821B861718F48D918193F9CF10929D02C5
:100AB00060939C02862F0895209174029091730296
:100AC000213208F04AC080919B028111FCCF32E0B4
:100AD00030939B0231E030939A023FEF30939902BA
:100AE0001092980220939702A3E5B2E045E752E006
:100AF000FA013E2F341B321718F43D913193F9CF90
:100B00001092960220919602990F922B9093960242
:100B100090919502913061F4109295029091960215
:100B20009093BB009091BC0093FDF8CF95EC01C071
:100B300095EE9093BC0090919B029230E1F39091DE
:100B400099029F3F79F080919902803241F0809123
:100B50009902803331F084E005C081E003C082E077
:100B600001C083E01092520210927402109251025E
:100B700008956F927F928F929F92AF92BF92CF9281
:100B8000DF92EF92FF920F931F93CF93DF938C012D
:100B900080914F02BB24B394B092510280937302B0
:100BA000109252021092740263E48BE593E00E946B
:100BB000BE020E945C0580914F0290915002B0925B
:100BC000510280937302109252021092740266E0F6
:100BD00070E00E94110580919C0290E020919D029E
:100BE000821B910986309105ECF38BE593E00E941E
:100BF0007202682E8BE593E00E947202782E8BE5DC
:100C000093E00E947202882E8BE593E00E947202AC
:100C1000982E8BE593E00E947202A82E8BE593E05C
:100C20000E947202B82ED62CC12CB6016729072E5D
:100C3000000C880B990B0E944D106093EF0170938C
:100C4000F0018093F1019093F201F82CE12CB701AF
:100C50006929072E000C880B990B0E944D10609398
:100C6000F3017093F4018093F5019093F601DA2D6E
:100C700080E0C82FBE016B29072E000C880B990B52
:100C80000E944D106093F7017093F8018093F90171
:100C90009093FA018CE0EFEEF1E0D80101900D9213
:100CA0008A95E1F7C801DF91CF911F910F91FF90D5
:100CB000EF90DF90CF90BF90AF909F908F907F90FC
:100CC0006F900895CF93C62F90914F0221E020930B
:100CD0005102909373021092520210927402682F84
:100CE0008BE593E00E94BE026C2F8BE593E00E949F
:100CF000BE02CF910C945C05CF9390914F02C1E05E
:100D0000C093510290937302109252021092740297
:100D1000682F8BE593E00E94BE020E945C058091E3
:100D20004F0290915002C09351028093730210922F
:100D300052021092740261E070E00E9411059091DD
:100D40009C0280919D029817F1F38BE593E00E943D
:100D50007202C82F0E945C058C2FCF910895CF930B
:100D6000DF93009779F0FC0101900020E9F73197BB
:100D7000AF01481B590BBC018EEB92E00E942A0187
:100D8000EC0102C0C0E0D0E042E050E06BE671E070
:100D90008EEB92E00E942A018C0F9D1FDF91CF9174
:100DA0000895482F81E08093E2012FB7F89480E204
:100DB00093E09093E1018093E0019093870080930A
:100DC00086002FBF80918100887F80938100909161
:100DD00081008091E201892B80938100493029F4C0
:100DE000219A80918000806804C0229A80918000BE
:100DF000806280938000653671052CF477FF05C012
:100E000060E070E002C064E670E08091E0019091E3
:100E1000E1015AE0589F9001599F300D1124DB01E8
:100E20000E94E712DC01CB012AE0B695A7959795C1
:100E300087952A95D1F72FB7F894477F413029F449
:100E4000909389008093880006C0423021F49093EB
:100E50008B0080938A002FBF08951F93CF93DF9359
:100E6000282F30E0F901E651FE4F8491F901EA5252
:100E7000FE4FD491F901EE53FE4FC491CC23C9F03B
:100E8000162F81110E94C304EC2FF0E0EE0FFF1F1C
:100E9000E255FE4FA591B4918FB7F894111105C09A
:100EA0009C91ED2FE095E92302C0EC91ED2BEC93A2
:100EB0008FBFDF91CF911F910895EF92FF920F9313
:100EC0001F93CF93DF93E82EF62EC7E0D0E0042FD8
:100ED00010E098010C2E02C0359527950A94E2F790
:100EE000B901617077278E2D0E942D0761E08F2D4B
:100EF0000E942D0760E08F2D0E942D07219748F753
:100F0000DF91CF911F910F91FF90EF900895CF93B4
:100F1000DF9390E0FC01EA52FE4F2491FC01EE5376
:100F2000FE4F8491882361F190E0880F991FFC01A6
:100F3000EC55FE4FC591D491FC01E255FE4FA591B1
:100F4000B491611109C09FB7F894888120958223DC
:100F50008883EC912E230BC0623061F49FB7F89424
:100F60003881822F809583238883EC912E2B2C93BC
:100F70009FBF06C08FB7F894E8812E2B28838FBFC0
:100F8000DF91CF910895CF93DF93C7E6D3E061E07F
:100F900089810E94870760E089810E942D0761E0B6
:100FA00088810E942D0761E089810E942D0760E001
:100FB0008981DF91CF910C948707CF93DF9360E015
:100FC000809168030E94870761E0809167030E9417
:100FD0002D072091680330E0F901E651FE4F84911E
:100FE000F901EA52FE4FD491F901EE53FE4FC4913C
:100FF000C11107C060E080916703DF91CF910C942D
:101000002D0781110E94C304EC2FF0E0EE0FFF1FAB
:10101000E854FE4FA591B491EC91ED2359F3D9CF4B
:101020000F931F93CF93DF931F92CDB7DEB7482F57
:1010300007E613E061E0F801818149830E94870798
:101040004981F801608181810F90DF91CF911F91DB
:101050000F910C945D07CF93DF93C7E6D3E061E077
:1010600089810E94870761E089810E942D0761E0E4
:1010700088810E942D0760E089810E942D0760E031
:1010800088810E942D0748E768818981DF91CF918F
:101090000C945D07CF9390916A03992341F194EEEC
:1010A0009093BC009091BC0097FFFCCF98E7909381
:1010B000BB0094EC9093BC009091BC0097FFFCCFD8
:1010C0001092BB0094EC9093BC009091BC0097FFF1
:1010D000FCCF8093BB0084EC8093BC008091BC006B
:1010E00087FFFCCF84E98093BC00CF910895C82F7F
:1010F0000E942B080E94DD0780E00E9410080E94D9
:10110000DD078C2F0E9410080E94DD07CF910C9400
:10111000C3078F929F92AF92BF92CF92DF92EF92CE
:10112000FF926B017C010E94EC044B015C01C11435
:10113000D104E104F104F1F00E94EC04DC01CB01E4
:1011400088199909AA09BB09883E9340A105B105F0
:1011500070F321E0C21AD108E108F10888EE880E88
:1011600083E0981EA11CB11CC114D104E104F10458
:1011700019F7DDCFFF90EF90DF90CF90BF90AF9049
:101180009F908F9008954F925F926F927F928F926F
:101190009F92AF92BF92CF92DF92EF92FF921F93F6
:1011A000CF93DF93CDB7DEB7A4970FB6F894DEBF29
:1011B0000FBECDBF81E080934E0212E319A21AA2A6
:1011C0001BA21CA21D8E1E8E1F8E18A2198E1A8E97
:1011D0001B8E1C8EC12CD12C760146015701260195
:1011E0003701CE0101960E94B9058091EF019091DF
:1011F000F001A091F101B091F2018D879E87AF8738
:10120000B88B9C01AD01C301B2010E947A112B0180
:101210003C018091F3019091F401A091F501B0910E
:10122000F601898B9A8BAB8BBC8B9C01AD01C50100
:10123000B4010E947A114B015C018091F7019091F9
:10124000F801A091F901B091FA018D8B9E8BAF8BC3
:10125000B88F9C01AD01C701B6010E947A116B01E4
:101260007C012D853E854F855889CA01B9010E94B0
:10127000AC109B01AC01698D7A8D8B8D9C8D0E9489
:101280007A11698F7A8F8B8F9C8F29893A894B8944
:101290005C89CA01B9010E94AC109B01AC016D8D43
:1012A0007E8D8F8D98A10E947A116D8F7E8F8F8F8A
:1012B00098A32D893E894F89588DCA01B9010E9492
:1012C000AC109B01AC0169A17AA18BA19CA10E94E9
:1012D0007A1169A37AA38BA39CA365E070E080E0F8
:1012E00090E00E948908115009F07BCF20E030E0A7
:1012F00048E452E4C301B2010E94E6112B013C0113
:1013000060931F0270932002809321029093220227
:1013100020E030E048E452E4C501B4010E94E61147
:101320004B015C0160932302709324028093250299
:101330009093260220E030E048E452E4C701B60171
:101340000E94E6116B017C016093270270932802D2
:101350008093290290932A0220E030E048E452E48E
:10136000698D7A8D8B8D9C8D0E94E6116D877E87AD
:101370008F87988BA3019201C301B2010E94AC1028
:101380009B01AC016D857E858F8598890E947911BE
:101390000E94921260932B0270932C0280932D0274
:1013A00090932E0220E030E048E452E46D8D7E8D73
:1013B0008F8D98A10E94E6112B013C01A50194019B
:1013C000C501B4010E94AC109B01AC01C301B20184
:1013D0000E9479110E94921260932F027093300242
:1013E000809331029093320220E030E048E452E4EE
:1013F00069A17AA18BA19CA10E94E6114B015C011D
:10140000A7019601C701B6010E94AC109B01AC0177
:10141000C501B4010E9479110E94921260933302B7
:10142000709334028093350290933602C0904A0242
:10143000D0904B02E0904C02F0904D0220E030E062
:10144000A901C701B6010E94871218160CF079C0D5
:10145000C701B6010E945812F62E662309F44BC04C
:1014600080914E02811102C00E94C3086F2D70E06E
:1014700080E090E00E944D104B015C019B01AC01AB
:1014800060912B0270912C0280912D0290912E027E
:101490000E94AC10609313027093140280931502A3
:1014A00090931602A501940160912F027091300271
:1014B00080913102909132020E94AC106093170229
:1014C000709318028093190290931A02A501940157
:1014D000609133027091340280913502909136020E
:1014E0000E94AC1060931B0270931C0280931D023B
:1014F00090931E0218C010921302109214021092C0
:1015000015021092160210921702109218021092F1
:10151000190210921A0210921B0210921C021092D1
:101520001D0210921E026F2D70E080E090E00E947C
:101530004B1060934A0270934B0280934C0290933D
:101540004D02A4960FB6F894DEBF0FBECDBFDF915B
:10155000CF911F91FF90EF90DF90CF90BF90AF9011
:101560009F908F907F906F905F904F900895CF9352
:10157000DF93CDB7DEB768970FB6F894DEBF0FBE26
:10158000CDBF789484B5826084BD84B5816084BD0C
:1015900085B5826085BD85B5816085BD80916E0011
:1015A000816080936E001092810080918100826042
:1015B000809381008091810081608093810080917F
:1015C00080008160809380008091B100846080936E
:1015D000B1008091B00081608093B00080917A006A
:1015E000846080937A0080917A00826080937A0090
:1015F00080917A00816080937A0080917A0080687F
:1016000080937A001092C100E091CE02F091CF0257
:1016100082E08083E091CA02F091CB021082E091D7
:10162000CC02F091CD0280E180831092D602E0914D
:10163000D202F091D30286E08083E091D002F09153
:10164000D102808180618083E091D002F091D1024B
:10165000808188608083E091D002F091D102808106
:1016600080688083E091D002F091D10280818F7DEB
:10167000808384E291E00E94AF06809169038F3FEE
:10168000F1F061E00E94870761E0809169030E94A8
:101690002D0761E070E080E090E00E94890860E042
:1016A000809169030E942D076AE070E080E090E07D
:1016B0000E94890861E0809169030E942D07809152
:1016C0006803823101F5809167038331E1F481E0A1
:1016D00080936A0361E082E10E942D0761E083E16B
:1016E0000E942D078091B9008E7F8093B900809170
:1016F000B9008D7F8093B9008CE08093B80085E0BD
:101700008093BC0007C010926A0361E08091670378
:101710000E9487078EEA0E944A0885ED0E944A08C7
:1017200080E80E944A0888EA0E944A088FE30E94E3
:101730004A0883ED0E944A0880E00E944A0880E43B
:101740000E944A088DE80E944A0884E10E944A08E3
:1017500080E20E944A0880E00E944A0881EA0E94D2
:101760004A0888EC0E944A088AED0E944A0882E1F1
:101770000E944A0881E80E944A088FEC0E944A08A9
:1017800089ED0E944A0881EF0E944A088BED0E9471
:101790004A0880E40E944A0884EA0E944A0886EACD
:1017A0000E944A088FEA0E944A0880E094E0E2E73B
:1017B000F3E0DF019C011D9221503040E1F7F894E5
:1017C00081E20E944A0880E00E944A088FE70E9456
:1017D0004A0882E20E944A0880E00E944A0887E0A4
:1017E0000E944A0880916A038823E1F084EE809386
:1017F000BC008091BC0087FFFCCF88E78093BB00D2
:1018000084EC8093BC008091BC0087FFFCCF80E417
:101810008093BB0084EC8093BC008091BC0087FF68
:10182000FCCF09C00E942B080E94DD0780E40E94C3
:1018300010080E94DD0702E713E064ECF62E8091A9
:101840006A03882359F0D8018C918093BB00F092F1
:10185000BC008091BC0087FFFCCF06C0F8018081EE
:101860000E9410080E94DD070F5F1F4FF7E002374C
:101870001F0729F780916A03882321F084E9809368
:10188000BC0002C00E94C3077894E8E6F0E0F09341
:101890006C03E0936B03E491E0936D03E9E6F0E001
:1018A000E491E0936E03EAE6F0E0E491E0936F03E5
:1018B000EBE6F0E0E491E093700310927103109274
:1018C000B6011092B5011092B8011092B70161E013
:1018D00088E00E94870761E08BE00E94870761E053
:1018E0008CE00E94870761E08DE00E94870760E03E
:1018F00088E00E942D0760E08BE00E942D0760E0E9
:101900008CE00E942D0760E08DE00E942D07109270
:10191000800080E18093810038E6E32EF12C11E015
:1019200048E4C42E55E4D52EF0925002E0924F02C6
:1019300010929D0210929C02109252021092740218
:1019400010929B0210939A021092950261E082E13C
:101950000E942D0761E083E10E942D078091B9006C
:101960008E7F8093B9008091B9008D7F8093B900FC
:10197000C092B800D092BC0010921F0210922002B8
:10198000109221021092220210922302109224023D
:10199000109225021092260210922702109228021D
:1019A0001092290210922A0210924E0210921302F3
:1019B0001092140210921502109216021092170241
:1019C000109218021092190210921A0210921B0221
:1019D00010921C0210921D0210921E0210924A02D6
:1019E00010924B0210924C0210924D0280914F02C5
:1019F000109351028093730210925202109274025B
:101A000065E78BE593E00E94BE020E945C05809131
:101A10004F029091500210935102809373021092E2
:101A200052021092740261E070E00E9411058BE591
:101A300093E00E947202082F0E945C05083659F05C
:101A400086E391E00E94AF0664EF71E080E090E0F1
:101A50000E94890869CF8BE60E947C06887F682FE8
:101A600061608BE60E9462068CEE90ECA9E7BDE314
:101A70008093420290934302A0934402B0934502A4
:101A80008BE10E947C06682F68618BE10E946206F0
:101A900080E49AEDAFE7B8E3809346029093470263
:101AA000A0934802B09349028CE10E947C06682F03
:101AB000677E8CE10E9462068BE60E947C06682F9E
:101AC0006F7B8BE60E9462060E94C30880914E02E3
:101AD000811102C00E94C30820E030E040E450E4DD
:101AE00060912B0270912C0280912D0290912E0218
:101AF0000E94AC106093130270931402809315023D
:101B00009093160220E030E040E450E460912F0210
:101B10007091300280913102909132020E94AC109B
:101B200060931702709318028093190290931A021F
:101B300020E030E040E450E46091330270913402E0
:101B400080913502909136020E94AC1060931B0286
:101B500070931C0280931D0290931E0280E090E01F
:101B6000A0E4B0E480934A0290934B02A0934C020D
:101B7000B0934D028CE0B82E90E5A92E20EB922E6A
:101B80002FB7F8948091D8019091D901A091DA01F2
:101B9000B091DB012FBF8093D3019093D401A09328
:101BA000D501B093D601CE0101960E94B90580916E
:101BB0004E02C0904202D0904302E0904402F09066
:101BC0004502882309F451C020911F023091200260
:101BD00040912102509122026091EF017091F00139
:101BE0008091F1019091F2010E947911A701960173
:101BF0000E94AC1060930702709308028093090260
:101C000090930A02209123023091240240912502F0
:101C1000509126026091F3017091F4018091F501D9
:101C20009091F6010E947911A70196010E94AC10D3
:101C300060930B0270930C0280930D0290930E023E
:101C400020912702309128024091290250912A02C6
:101C50006091F7017091F8018091F9019091FA017A
:101C60000E947911A701960132C0A70196016091E7
:101C7000EF017091F0018091F1019091F2010E94C9
:101C8000AC1060930702709308028093090290934E
:101C90000A02A70196016091F3017091F40180910D
:101CA000F5019091F6010E94AC1060930B027093C5
:101CB0000C0280930D0290930E02A7019601609191
:101CC000F7017091F8018091F9019091FA010E9459
:101CD000AC1060930F0270931002809311029093E6
:101CE000120220E030E0A90160914A0270914B029B
:101CF00080914C0290914D020E944610882309F475
:101D000081C0C0900702D0900802E0900902F090D4
:101D10000A0220E030E0A901C701B6010E94871243
:101D2000181624F0F7FAF094F7F8F09420911302C3
:101D3000309114024091150250911602C701B6016C
:101D40000E94461087FF08C01092070210920802F6
:101D50001092090210920A02C0900B02D0900C025D
:101D6000E0900D02F0900E0220E030E0A901C701E2
:101D7000B6010E948712181624F0F7FAF094F7F8CB
:101D8000F09420911702309118024091190250915D
:101D90001A02C701B6010E94461087FF08C01092C0
:101DA0000B0210920C0210920D0210920E02C090C3
:101DB0000F02D0901002E0901102F090120220E089
:101DC00030E0A901C701B6010E948712181624F05D
:101DD000F7FAF094F7F8F09420911B0230911C026E
:101DE00040911D0250911E02C701B6010E9446108B
:101DF00087FF08C010920F02109210021092110279
:101E000010921202E7E0F2E0DE011D968B2D0190A8
:101E10000D928A95E1F7FE013D96A7ECB1E08B2D7E
:101E200001900D928A95E1F72DEC3CEC4CE45DE3DA
:101E30006091CF017091D0018091D1019091D20138
:101E40000E94AC102091C3013091C4014091C501A2
:101E50005091C6010E947A116093C3017093C4012E
:101E60008093C5019093C6010E9458126093C201ED
:101E70008EEB92E00E94BD011092C1018EEB92E0C8
:101E80000E948601892B39F08EEB92E00E9464015A
:101E90008093C101F3CF8091C101813514F0A092EC
:101EA000C1018091C101803B14F49092C101009165
:101EB000C101002E000C110B0C392FEF120714F486
:101EC0000CE91FEF0536110514F004E610E08091CF
:101ED000B5019091B6018017910741F110161106D6
:101EE00054F461E088E00E942D0760E08BE00E94DE
:101EF0002D07B80118C060E088E00115110559F000
:101F00000E942D0761E08BE00E942D07662777274E
:101F1000601B710B08C00E942D0760E08BE00E94DF
:101F20002D0760E070E089E00E94D1068091B70142
:101F30009091B8018017910741F11016110654F4E1
:101F400061E08CE00E942D0760E08DE00E942D078B
:101F5000B80118C060E08CE00115110559F00E942D
:101F60002D0761E08DE00E942D0766277727601B13
:101F7000710B08C00E942D0760E08DE00E942D07C4
:101F800060E070E08AE00E94D1062FB7F89480915B
:101F9000D8019091D901A091DA01B091DB012FBF56
:101FA0000091D3011091D4012091D5013091D60137
:101FB000BC01CD01601B710B820B930B0E944B1077
:101FC0009B01AC0160E070E088E492E40E9479112A
:101FD0000E9458120E9489080E942602D1CDCF93F8
:101FE000DF93EEEBF2E01382128288EE93E0A0E042
:101FF000B0E084839583A683B78324E031E0318306
:10200000208325EC30E03587248724EC30E03787C7
:10201000268720EC30E0318B208B21EC30E0338BB5
:10202000228B22EC30E0358B248B26EC30E0378B92
:10203000268B118E128E138E148EEBE5F3E0138235
:10204000128284839583A683B78386E191E091838E
:102050008083E7E6F3E082E1818383E1808388E0A7
:10206000828361E087E00E948707C2E7D7E087E0CC
:1020700090E09B838A8360E086E00E94870786E089
:1020800090E099838883DF91CF9108950E94881012
:1020900008F481E00895E89409C097FB3EF4909518
:1020A0008095709561957F4F8F4F9F4F9923A9F031
:1020B000F92F96E9BB279395F695879577956795C0
:1020C000B795F111F8CFFAF4BB0F11F460FF1BC004
:1020D0006F5F7F4F8F4F9F4F16C0882311F096E997
:1020E00011C0772321F09EE8872F762F05C0662345
:1020F00071F096E8862F70E060E02AF09A95660FFE
:10210000771F881FDAF7880F9695879597F90895B6
:10211000990F0008550FAA0BE0E8FEEF16161706F8
:10212000E807F907C0F012161306E407F50798F060
:10213000621B730B840B950B39F40A2661F0232B79
:10214000242B252B21F408950A2609F4A140A695F5
:102150008FEF811D811D08950E94BF100C943011D6
:102160000E94221138F00E94291120F0952311F0CD
:102170000C9419110C941F1111240C9464110E94D9
:10218000411170F3959FC1F3950F50E0551F629F69
:10219000F001729FBB27F00DB11D639FAA27F00DC0
:1021A000B11DAA1F649F6627B00DA11D661F829FE7
:1021B0002227B00DA11D621F739FB00DA11D621FCC
:1021C000839FA00D611D221F749F3327A00D611DE9
:1021D000231F849F600D211D822F762F6A2F1124CB
:1021E0009F5750409AF0F1F088234AF0EE0FFF1FFE
:1021F000BB1F661F771F881F91505040A9F79E3F55
:10220000510580F00C9419110C9464115F3FE4F3B4
:10221000983ED4F3869577956795B795F795E795AA
:102220009F5FC1F7FE2B880F911D9695879597F9B3
:10223000089597F99F6780E870E060E008959FEF48
:1022400080EC089500240A9416161706180609064D
:10225000089500240A94121613061406050608951C
:10226000092E0394000C11F4882352F0BB0F40F4A4
:10227000BF2B11F460FF04C06F5F7F4F8F4F9F4FE4
:10228000089557FD9058440F551F59F05F3F71F066
:102290004795880F97FB991F61F09F3F79F08795CD
:1022A0000895121613061406551FF2CF4695F1DF56
:1022B00008C0161617061806991FF1CF86957105E6
:1022C000610508940895E894BB2766277727CB011A
:1022D00097F90895A29FB001B39FC001A39F700D0D
:1022E000811D1124911DB29F700D811D1124911D1E
:1022F00008955058BB27AA270E9491110C943011C1
:102300000E94221138F00E94291120F039F49F3FD9
:1023100019F426F40C941F110EF4E095E7FB0C94CD
:102320001911E92F0E94411158F3BA176207730778
:102330008407950720F079F4A6F50C9463110EF448
:10234000E0950B2EBA2FA02D0B01B90190010C01C5
:10235000CA01A0011124FF27591B99F0593F50F4DD
:10236000503E68F11A16F040A22F232F342F442735
:10237000585FF3CF469537952795A795F04053952D
:10238000C9F77EF41F16BA0B620B730B840BBAF0FD
:102390009150A1F0FF0FBB1F661F771F881FC2F768
:1023A0000EC0BA0F621F731F841F48F4879577957C
:1023B0006795B795F7959E3F08F0B0CF9395880F36
:1023C00008F09927EE0F9795879508950E94FA11C6
:1023D0000C9430110E94291158F00E94221140F0F3
:1023E00029F45F3F29F00C94191151110C946411D8
:1023F0000C941F110E94411168F39923B1F35523E6
:1024000091F3951B550BBB27AA2762177307840707
:1024100038F09F5F5F4F220F331F441FAA1FA9F39D
:1024200035D00E2E3AF0E0E832D091505040E6958B
:10243000001CCAF72BD0FE2F29D0660F771F881FEC
:10244000BB1F261737074807AB07B0E809F0BB0BDF
:10245000802DBF01FF2793585F4F3AF09E3F5105F3
:1024600078F00C9419110C9464115F3FE4F3983EDA
:10247000D4F3869577956795B795F7959F5FC9F7DC
:10248000880F911D9695879597F90895E1E0660F5D
:10249000771F881FBB1F621773078407BA0720F0D6
:1024A000621B730B840BBA0BEE1F88F7E09508953F
:1024B0000E94491188F09F5798F0B92F9927B7517A
:1024C000B0F0E1F0660F771F881F991F1AF0BA95D8
:1024D000C9F714C0B13091F00E946311B1E00895C2
:1024E0000C946311672F782F8827B85F39F0B93FB4
:1024F000CCF3869577956795B395D9F73EF490958B
:102500008095709561957F4F8F4F9F4F08950E94E2
:10251000881008F48FEF089519F416F40C941F1125
:102520000C94D2120E944911B8F39923C9F3B6F35F
:102530009F57550B87FF0E94E0120024A0E640EA57
:10254000900180585695979528F4805C660F771F08
:10255000881F20F026173707480730F4621B730BDB
:10256000840B202931294A2BA695179407942025FE
:1025700031254A2758F7660F771F881F20F0261746
:102580003707480730F4620B730B840B200D311DA5
:10259000411DA09581F7B901842F9158880F969518
:1025A000879508959F3F31F0915020F48795779556
:1025B0006795B795880F911D9695879597F908951A
:1025C00091505040660F771F881FD2F708950E94E0
:1025D0006A11B7FF0895821B930B0895EE0FFF1F3A
:1025E0000590F491E02D099481E090E0F8940C942A
:0625F000F912F894FFCF80
:1025F60000000000BD012A015501040286016401A4
:10260600780100000000BE028E02EE02620286021F
:102616007202630250692D446F702E2069276D2067
:10262600726561647900436F756C64206E6F742007
:1026360066696E6420612076616C6964204D505530
:10264600363035302073656E736F722C2063686583
:0E265600636B20776972696E6721000D0A00C0
:00000001FF
